:100000000C94FD1E0C942E1F0C942E1F0C942E1F6E
:100010000C942E1F0C944A540C942E1F0C941EA169
:100020000C94D5530C942E1F0C942E1F0C942E1F41
:100030000D94EB2B0C942E1F0D9450380C9491F9C9
:100040000C942E1F0C9435E50C942E1F0C942E1F2F
:100050000C942E1F0C942E1F0C942E1F0C9456AE35
:100060000C942E1F0C943DF40C942E1F0C942E1FF8
:100070000C942E1F0C942E1F0C942E1F0C942E1FCC
:100080000C942E1F0C942E1F0C942E1F0C942E1FBC
:100090000C94F9F30C942E1F0C942E1F0C942E1F0D
:1000A0000C942E1F0C942E1F0C9407F90C942E1FE9
:1000B0000C942E1F0C94E9F80C942E1F0C942E1FF8
:1000C0000C942E1F0C942E1F0C942E1F0C946FF862
:1000D0000C942E1F0C942E1F0C942E1F0C942E1F6C
:1000E0000C942E1FF28A018DD18CC68CBB8CB08CE7
:1000F000A58C248D148D7E8C508C1E8C4892009281
:1001000048924B92BA92D59248924892EF9272AE30
:1001100080AE8EAE9BAEADAEB4AED6AEECAE77C119
:1001200082C121C1EEC0C3C03CC4B8C1D7C25DC347
:10013000A9C3C4C3EDC341E361E373E382E38EE388
:10014000CCE32BE3E4E3FAE3F4E32BE3FDE30AE49B
:1001500011E429E4AF02C7015D01AD01B7012F022F
:100160001B023B03C70249025302E90161029B01E2
:100170002F0251018F0209030D03BF02BB022B03A3
:100180008101090213027B01450267015B01C9017C
:10019000B70235030902A9013702CD01070307039E
:1001A0000302070303027F021B035701A302D301CB
:1001B0007901290383010F03F5022902C1019D0280
:1001C000C3017D01084AD73B3BCE016E84BCBFFD15
:1001D000C12F3D6C74319ABD56833DDA3D00C77F17
:1001E00011BED9E4BB4C3E916BAAAABE00000080B0
:1001F0003F05A84CCDB2D44EB93836A9020C50B93F
:10020000918688083CA6AAAA2ABE000000803F0763
:10021000634236B79BD8A71A39685618AEBAAB55A1
:100220008C1D3CB7CC5763BD6DEDFD753EF6177266
:1002300031BF000000803F08000000BE9224491238
:100240003EABAAAA2ABECDCCCC4C3E00000080BE5C
:10025000ABAAAAAA3E00000000BF000000803F0039
:1002600000000000084178D3BB4387D1133D190E2D
:100270003CC3BD4282AD2B3E68EC8276BED98FE195
:10028000A93E4C80EFFFBE01C4FF7F3F000000008D
:1002900000000D942C3C0D94953F0D94FF070D9498
:1002A0005C2A0D94EE130C94C5A90C9448920D94FD
:1002B000A7420C9429E40D9401160D94B3130C94E9
:1002C000836A0D9411110C94EEC00D94243B0D948F
:1002D000F7150D9471080C94ADA20C94248D0D9417
:1002E000A74E0C94F28A0C942EAD0C947E8C0C9438
:1002F0008EE30D94C9420D94E5150D943C430D9485
:10030000F9140D94D3150D94EC420C94C68C0C94F6
:10031000B4AE0C9400920C94508C0D94394F0D9403
:10032000E2400C9469A80C9483DD0D94E8070D94C9
:100330001C150C9441E30D94E8130C94A0DE0C946E
:10034000B08C0C94D48D0D9433080C949F950D941F
:10035000E6400D942E160C947FE40D94B7130D9483
:10036000DD080D94C3400D94740C0C94A3A50D945A
:10037000BD130C9457A80C9472A80C94F4E30C943D
:1003800085A90D9413430D9430430D9489230D9446
:10039000C4130D940B160C94D7C20D9442160C94F2
:1003A000A5A90D94D23B0D94C6420D940A400D941C
:1003B0005E120C94BA920C94C4C30C9434A60C94A0
:1003C00096DD0C947AA30D9408150C94E4E30C9438
:1003D00056C00D94E0130D948C3B0C94B5A90D946C
:1003E0009B120D9488270C94D5920C94C3C00D9445
:1003F00034070C944EE20C94ADA90C94148D0D941A
:1004000052230C94AD6C0D9418420C94C1AC0C9416
:10041000ADAE0D944C160C94C8F10C9491A20C94B2
:100420003DA20C9477BF0D94DD150D94A7080C9494
:100430001E8C0D94EA3C0D94C8130C9447E20C9466
:10044000D18C0C94CDDC0D94270B0D94343F0D947E
:1004500074690D9407430C945DC30C945DE10D9495
:10046000FB130D94A84A0D94AE3A0C9480AE0D94F3
:1004700038160D944A3A0D94FC130C94DF720D94C7
:100480001B0E0D94BB3C0D94800A0D94ED150C943D
:100490004B920D94D6130C943CC40D94EC4F0D94D8
:1004A00012150C948DA90D94DA130D94234F0C940E
:1004B0008EAE0C9461E30D94810C0C94BB8C0C9467
:1004C00082C10D94E4130D94F2080C949BAE0C942D
:1004D00077C10D94268C0C9424E10C94C4BF0D9428
:1004E00084290C9440E20C94CCE30D9444230D94A5
:1004F0000D150C94D6AE0D942F0E0D94C53A0D9497
:100500001B420C94ABDE0D9454100C942BE30C9412
:10051000AADD0C9421C10D94E64E0C94CDA90D9446
:10052000F2130C9439E20D943F070C9472AE0D94C3
:1005300003150C944DDD0D9417150D942D430D945A
:1005400060690C94FAE30D94B3420D940D690D9417
:1005500006140D945D100C940CDF0D94F13C0D9479
:10056000C1130C9411E40C94A0DD0D94EA680D9471
:100570001A160D94A94E0D94BF150C94BDA90D9497
:10058000BA150C949DA90C947DA90D94FE140D949C
:10059000D2130D94BB070C94D5A90D9465100D943E
:1005A000B96A0C940AE40C94FDE30D943D270D9474
:1005B0000D8D0C94018D0C94A9C30D948C0C0D948D
:1005C00002140C9460A80D9460110C94A58C0C94EA
:1005D000EDC30C9411E00D9459400C94C9A40D94F2
:1005E00028270C9472AD0C94ECAE0D94FB420C9445
:1005F0005DDD0D9411280D9450100C9460E20C9464
:10060000EF920C9495A90C9470DD0D947D070D94D8
:1006100008420D94F6130C9424AD0D94B5150D9469
:10062000EF420D9409120C9432E20C9473A90D94CC
:100630000B140C9480BA0D941E420C943BDF0C9466
:1006400029AD0D94FB490D942F3F0C9482E30D943A
:10065000583B0D94E9420D94C9150D94B83A0C9489
:100660009EBA0C94B8C10D9420280D9424160C94B5
:10067000E1F10C9473E30D94CC136E616E00696E1E
:1006800066004E414E494E495459494E46CDCCCC58
:100690003D0AD7233C17B7D13877CC2B329595E656
:1006A000241FB14F0A000020410000C84200401C36
:1006B0004620BCBE4CCA1B0E5AAEC59D7400407A83
:1006C00010F35A00A0724E18090010A5D4E80000DB
:1006D000E87648170000E40B54020000CA9A3B0079
:1006E0000000E1F505000080969800000040420FF0
:1006F000000000A08601000000102700000000E8B4
:1007000003000000006400000000000A0000000078
:10071000000100000000002C76D888DC674F082319
:10072000DFC1DFAE59E1B1B796E5E3E453C63AE67F
:1007300051997696E8E6C28426EB898C9B62ED405F
:100740007C6FFCEFBC9C9F40F2BAA56FA5F49005AE
:100750005A2AF75C936B6CF9676DC11BFCE0E40DE2
:1007600047FEF520E6B500D0ED902E0300943577D6
:10077000050080841E080000204E0A000000C80CFE
:10078000333333330F986E12831141EF8D21148967
:100790003BE65516CFFEE6DB18D1844B381BF77CC1
:1007A0001D901DA4BBE424203284725E228100C906
:1007B000F124ECA1E53D276364696E6F7073757871
:1007C000585B00416476616E6365204B3D004B20B1
:1007D0006F7574206F6620616C6C6F776564207232
:1007E000616E6765210025336400200A200A20001D
:1007F0004D32323020532569002553417263205316
:10080000657474696E67733A20503A4D6178206C54
:10081000656E677468286D6D2920533A4D696E20A6
:100820006C656E67746820286D6D29204E3A436FA1
:100830007272656374696F6E7320523A4D696E20EF
:100840007365676D656E747320463A5365676D65B1
:100850006E74732F7365632E0A255320204D323139
:10086000342050252E32662053252E3266204E2508
:100870006420522564204625640A00255346696C8D
:10088000616D656E742073657474696E67733A2068
:1008900044697361626C65640A00255346696C6142
:1008A0006D656E742073657474696E67733A0A259A
:1008B000532020204D3230302044252E32660A004D
:1008C0002553526574726163743A20533D4C656ED2
:1008D00067746820286D6D2920463A5370656564F9
:1008E00020286D6D2F6D29205A3A205A4C69667464
:1008F00020286D6D290A25532020204D32303720C5
:1009000053252E32662046252E3266205A252E3259
:10091000660A25535265636F7665723A20533D45EA
:1009200078747261206C656E67746820286D6D291B
:1009300020463A537065656420286D6D2F6D290A35
:1009400025532020204D3230382053252E3266206A
:1009500046252E32660A25534175746F2D526574F3
:10096000726163743A20533D3020746F2064697360
:1009700061626C652C203120746F20696E74657221
:100980007072657420657874727564652D6F6E6C15
:1009900079206D6F76657320617320726574726162
:1009A000637473206F72207265636F766572696518
:1009B000730A25532020204D323039205325640AF4
:1009C0000025535049442068656174626564207352
:1009D000657474696E67733A0A25532020204D337D
:1009E00030342050252E32662049252E3266204490
:1009F000252E32660A0025535049442073657474CD
:100A0000696E67733A0A25532020204D3330312018
:100A100050252E32662049252E32662044252E325E
:100A2000660A0025535374657073207065722075D3
:100A30006E69743A0A255320204D39322058252EEC
:100A400032662059252E3266205A252E32662045E0
:100A5000252E32660A2553555374657020726573CE
:100A60006F6C7574696F6E3A200A2553204D3335CB
:100A7000302058256420592564205A2564204525B6
:100A8000640A25534D6178696D756D2066656564EE
:100A90007261746573202D206E6F726D616C2028F9
:100AA0006D6D2F73293A0A255320204D32303320A3
:100AB00058252E32662059252E3266205A252E3290
:100AC000662045252E32660A25534D6178696D757D
:100AD0006D20666565647261746573202D20737482
:100AE00065616C746820286D6D2F73293A0A25534F
:100AF00020204D3230332058252E32662059252EA5
:100B00003266205A252E32662045252E32660A2569
:100B1000534D6178696D756D20616363656C6572B5
:100B20006174696F6E202D206E6F726D616C20286C
:100B30006D6D2F7332293A0A255320204D32303102
:100B40002058256C752059256C75205A256C752008
:100B500045256C750A25534D6178696D756D206169
:100B60006363656C65726174696F6E202D207374A8
:100B700065616C746820286D6D2F7332293A0A25DF
:100B80005320204D3230312058256C752059256C6A
:100B900075205A256C752045256C750A25534163CF
:100BA00063656C65726174696F6E3A20503D707256
:100BB000696E742C20523D726574726163742C20CE
:100BC000543D74726176656C0A255320204D323095
:100BD000342050252E32662052252E326620542590
:100BE0002E32660A2553416476616E636564207611
:100BF00061726961626C65733A20533D4D696E2084
:100C0000666565647261746520286D6D2F73292C8B
:100C100020543D4D696E2074726176656C20666566
:100C200065647261746520286D6D2F73292C2042D4
:100C30003D6D696E696D756D207365676D656E7468
:100C40002074696D6520286D73292C20583D6D61D5
:100C500078696D756D205859206A65726B20286D12
:100C60006D2F73292C20205A3D6D6178696D756D4B
:100C7000205A206A65726B20286D6D2F73292C20F5
:100C800020453D6D6178696D756D2045206A6572FE
:100C90006B20286D6D2F73290A255320204D32308B
:100CA000352053252E32662054252E3266204225CB
:100CB0002E32662058252E32662059252E32662087
:100CC0005A252E32662045252E32660A2553486F56
:100CD0006D65206F666673657420286D6D293A0A0C
:100CE000255320204D3230362058252E326620598B
:100CF000252E3266205A252E32660A0046256420AB
:100D000025640A004D4D55203C3D20274625642092
:100D10002564270A004361703A25533A25630A0087
:100D200050525553415F4D4D553200455854454E34
:100D30004445445F4D3230004155544F5245504F69
:100D400052545F504F534954494F4E004155544FF0
:100D50005245504F52545F46414E53004155544FF7
:100D60005245504F52545F54454D5000005A300088
:100D70005A3100593000593100583000583100457F
:100D80006E642073746F70732064696167004465DA
:100D90006C6574696F6E206661696C65642C2046B1
:100DA000696C653A200046696C652064656C657401
:100DB00065643A004E6F74205344207072696E74FB
:100DC000696E67005072696E7420736176656400A5
:100DD0005344207072696E7420706175736564008D
:100DE0002533642F253364004F4B004241440052A9
:100DF000414D426F2046414E200043524153485FCF
:100E000043414E43454C0043524153485F52454392
:100E10004F5645520043524153485F5245434F5647
:100E200045520022283229004475706C6963617450
:100E30006520542D636F64652069676E6F72656409
:100E40002E00496E76616C6964205420636F64657E
:100E50002E002C204D39303720452069676E6F7287
:100E60006564006E6F2076616C696420636F6D6DE0
:100E7000616E64002C20002C20002C20006E2F615D
:100E8000007A65726F72697A656400666163746F77
:100E9000727920726573746F726564002C20002C67
:100EA00020002C20006E2F6100696E6465782C2074
:100EB00074656D702C2075737465702C20756D00D1
:100EC00050494E44412063616C20737461747573A2
:100ED0003A2000503A005761697420666F722050C2
:100EE000494E4441207461726765742074656D7069
:100EF000657261747572653A004155544F004C41FA
:100F00004E472053454C20464F52434544002064F1
:100F10003A0020693A0020703A0020643A002069C3
:100F20003A0020703A00256925250A002569252503
:100F30000A00222831290030303030303030302D56
:100F4000303030302D303030302D303030302D30AA
:100F5000303030303030303030303000205555496E
:100F6000443A0031002045585452554445525F439D
:100F70004F554E543A005072757361206933204DBD
:100F80004B335300204D414348494E455F5459501F
:100F9000453A00312E3000206261736564206F6E27
:100FA000204D61726C696E204649524D5741524541
:100FB0005F55524C3A68747470733A2F2F67697496
:100FC0006875622E636F6D2F707275736133642F55
:100FD00050727573612D4669726D7761726520502C
:100FE000524F544F434F4C5F56455253494F4E3A20
:100FF000004649524D574152455F4E414D453A508A
:10100000727573612D4669726D7761726520004D4E
:1010100031313320530020423A0020453A00543AFF
:10102000006F6B20006E2F61003F546F7368696220
:101030006120466C6173684169722047657449504C
:10104000206661696C65640A00000125311D0C4051
:1010500024301C0B45232F1B0A17FF0406222B1AD2
:1010600003363735382569206D696E2C20256920B7
:1010700073656300496E76616C6964204D20636F0F
:1010800064653A2025730A004D65736820626564C3
:10109000206C6576656C696E67206E6F7420616385
:1010A000746976652E002020000A4D6561737572A3
:1010B000656420706F696E74733A000A5A20736514
:1010C00061726368206865696768743A20004E75CC
:1010D0006D20582C593A200050494E4441207072DE
:1010E0006F62652063616C6962726174696F6E2002
:1010F000737461727400473238205730004E6F208D
:1011000050494E444120746865726D6973746F7202
:1011100000736574006E6F7A7A6C65004D424C0006
:101120004652004C7A004C616E670052657600466C
:10113000697200534E20696E76616C696400534E8B
:10114000006676005245534554004D4D5552455367
:10115000004D32340075766C6F007468780046413B
:101160004E0046414E50494E5453540050524E008A
:1011700050696E67005052555341005345545F43C8
:10118000484F505F005345545F535445505F0053E0
:1011900045545F574156455F00544D435F004352ED
:1011A0004153485F43414E43454C004352415348ED
:1011B0005F5245434F5645520043524153485F44A6
:1011C000455445435445440043524153485F004D04
:1011D0003120004D30004D313137000A204F726907
:1011E00067696E616C2050727573612069330A20E3
:1011F0002020507275736120526573656172636857
:10120000004C616E67756167652075706461746517
:101210002E00435A5058003B53006164635F696E6F
:10122000697400200A200A200A2000416C6C2044C6
:1012300061746100536572766963652070726570D0
:10124000005368697070696E672070726570005332
:10125000746174697374696373004C616E6775615E
:1012600067650045524153494E4720616C6C2064CC
:1012700061746100466163746F7279205245534511
:10128000540044495341424C454400454E41424C70
:10129000454400202873656E736F7220626F61721F
:1012A00064207265766973696F6E3A2553290A0066
:1012B0004653656E736F7220255300494E543400B7
:1012C0004D4B33534D4D553253004E4F4D4B3353D1
:1012D000002E014E4F4354554100414C5446414E5F
:1012E00000417567203130203230323200436F6D5B
:1012F00070696C65643A2000286E6F6E652C2064FE
:10130000656661756C7420636F6E6669672900415C
:10131000756720313020323032322032323A343563
:101320003A33330020332E31312E312D34393837D2
:1013300000737461727400534E207570646174653B
:10134000206661696C656400534E20757064617439
:10135000656400435A50580043524153485F444526
:1013600054454354454458590043524153485F44FF
:1013700045544543544544590043524153485F4402
:101380004554454354454458004D32390020573A9E
:101390000020453A00543A005A206C697665206175
:1013A000646A757374206F7574206F662072616E45
:1013B00067652E2053657474696E6720746F2030E2
:1013C0002E20436C69636B20746F20636F6E7469A9
:1013D0006E75652E005A206C6976652061646A75A9
:1013E0007374206F7574206F662072616E67652E4E
:1013F0002053657474696E6720746F20300020423A
:101400003A0020453A00543A00494E54340072657F
:10141000636F7665725F6D616368696E655F737433
:101420006174655F61667465725F706F7765725F26
:1014300070616E69632C20696E697469616C20004B
:1014400050525553412075766C6F0047342053300D
:10145000004D32362053256C75004D313036205307
:10146000004D323230205325640047312046256438
:10147000004D383200473932204525362E3366007C
:101480004731204525302E33662046323730300034
:101490004D32303420502566205225662054256672
:1014A000004731205A2566005052555341204D4285
:1014B0004C2056310047312058256620592566209A
:1014C000463330303000506F736974696F6E20722C
:1014D0006561642066726F6D20656570726F6D3A2C
:1014E000004D3233202573002E67636F002C206679
:1014F0006565646D756C7469706C793A00466565F4
:1015000064726174653A0047312045252D302E33D1
:10151000662046323730300047312045352046318D
:101520003230004D3833004D3130392053256400BE
:101530004D31393020532564004D3130342053254E
:10154000640047323820582059004731205A252E50
:1015500033662046383030004731205A252D302E52
:1015600033662046252D302E336600473120452531
:101570002D302E3366204632373030004D38330060
:10158000312E3000312E3500554E4B4E4F574E0008
:101590004C413130433A204C696E656172204164A0
:1015A00076616E6365206D6F64653A20004C413151
:1015B00030433A2041646A757374656420452D4A4E
:1015C00065726B3A2000000E1315110E0000000426
:1015D000120912040000001C1F11111F0000000658
:1015E000191803130C00040E1F041C000000040A49
:1015F0000A0A0A11110E0C12120C00000000001F42
:101600001511151F0000000103161C080000000042
:10161000110A04110A042563252D31382E3138535F
:101620002563005B25735D2563005B25535D2563A2
:10163000002563252D31382E31385300252E3130C9
:101640005320002563252D31382E31387325630052
:101650002563252D2E31365320002563252E313567
:10166000533A257325336400252D32302E32305302
:101670000A00457872656D65207370616E206F6633
:1016800020746865205A2076616C75657321002589
:10169000642F390078797A63616C5F6D656173736B
:1016A0007572655F656E7465720A0078797A636138
:1016B0006C5F73706972616C382063783D256420BB
:1016C00063793D2564207A303D256420647A3D2588
:1016D00064207261646975733D25642061643D25F1
:1016E000640A0078797A63616C5F7365617263681C
:1016F0005A206E6F207369676E616C0A20783D25F1
:101700006C6420793D256C64207A3D256C640A0068
:10171000204F4E2D5349474E414C20617420783D57
:10172000256420793D2564207A3D25642061643D4F
:1017300025640A0078797A63616C5F73656172630E
:10174000685A20783D256C6420793D256C64207AA8
:101750003D256C640A0025640A005363616E2063B2
:101760006F756E74646F776E3A20000A0025303210
:101770007800205B25662025665D206D6D207061F8
:10178000747465726E2063656E7465720A00205B06
:1017900025662025665D5B25665D206D6D2064698C
:1017A00076657267656E63650A000000F000F801F7
:1017B000FC03FE07FE07FE07FE07FC03F801F0002E
:1017C000000000000000F000F801FC03FC03FC0333
:1017D000FC03F801F0000000000078797A63616C86
:1017E0005F6D656173737572655F6C656176650ABF
:1017F00000203C20005741524E494E473A20467245
:101800006F6E7420706F696E74206E6F74207265D5
:1018100061636861626C652E205920636F6F72642A
:10182000696E6174653A0000000040410000C040EC
:1018300000005C430000C04000005C4300004643E1
:10184000000040410000464325642F340049746580
:10185000726174696F6E3A200043616C69627261F3
:1018600074696F6E206661696C65642120436865E8
:10187000636B20746865206178657320616E6420F5
:1018800072756E20616761696E2E00473120583590
:101890002E302045342E302046313030302E30006E
:1018A0004731205A302E32302046313030302E3001
:1018B000004731205835352E30204532352046310D
:1018C0003430302E3000473120592D322E30204612
:1018D000313030302E3000473120583234302E3005
:1018E000204532352E30202046323230302E300026
:1018F0004739322045302E30004731205A302E33C0
:101900002046313030302E30004731205835352ECA
:10191000302045382E302046323030302E300047CF
:10192000312058352E30204533322E302046313884
:1019300030302E30004731205835352E3020453399
:10194000322E302046313037332E3000473120469A
:1019500034303030004D32303420533130303000AC
:101960004731205A352046373230302E3030300063
:10197000473120452D312E35303030302046323140
:1019800030302E3030303030004D38330047393071
:1019900000473231004739322045302E3000473180
:1019A00020583530205935352045332E36323737DB
:1019B00033004731205832303020593535204530FA
:1019C0002E343933383600473120583230302059E0
:1019D00037352045332E36323737330047312058DC
:1019E0003530205937352045302E343933383600DC
:1019F000473120583530205939352045332E36327D
:101A000037373300473120583230302059393520AC
:101A100045302E3439333836004731205832303093
:101A200020593131352045332E3632373733004790
:101A3000312058353020593131352045302E343958
:101A4000333836004731205835302059313335206E
:101A500045332E3632373733004731205832303055
:101A600020593133352045302E3636313734004752
:101A700031205832303020593135352045322E361C
:101A80003237373300473120583130302059313523
:101A9000352045320047312058373520593135350A
:101AA0002045322E3500473120463130383000474E
:101AB00031205A302E3135302046373230302E30FA
:101AC00030300047312058353020593135350072DB
:101AD0006573756C742076616C75653A2025640AAF
:101AE0000020693D25326420636E743D25326420F8
:101AF00076616C3D2532640A00636C75737465729F
:101B0000733A0020693D25326420737465703D2569
:101B100032640A00736F727465642073616D706C57
:101B200065733A00252D3773003A2000252D313298
:101B30002E313253252D642F3600203A2000252DDA
:101B4000323073004739322045302E30004732386A
:101B5000004D313039004D313930004D31303700D2
:101B6000542564004731205A302E3420463130301D
:101B7000302E3000473120592D332E302046313061
:101B800030302E30004D383300473120583130305E
:101B90002E30204531322E352046313030302E3037
:101BA000004731205836302E302045392E3020461F
:101BB000313030302E300035191F190919F918F05D
:101BC00018D718C618B118A0188B18951991198D27
:101BD0001989197019601955194C19473120583550
:101BE00030205933352045252D2E336600C31AAFDA
:101BF0001AA61A951A851A6F1A591A441A2F1A1901
:101C00001A041AF019DC19C719B2199E19496E760F
:101C1000616C6964205049442063616C2E207265B8
:101C200073756C74732E204E6F742073746F7265AD
:101C30006420746F20454550524F4D2E004D353075
:101C400030004D3330312050252E32662049252E6C
:101C500032662044252E3266004D33303320453025
:101C60002053253375004731205A31352046313510
:101C70003030004739310047312058353020593154
:101C80003930204530204637303030004739300079
:101C90004D3834004D373032204300473120583121
:101CA0003020593138302046343030300047312030
:101CB0005A31302046313330302E303030004D3103
:101CC0003430205330004D31303420533000473110
:101CD00020452D302E3037353030204632313030EF
:101CE0002E3030303030004D313037001000C90216
:101CF00010012C014001220170011801B0010E01F8
:101D0000F00104015002FA00B002F0003003E600D6
:101D1000D003DC009004D2007005C800A006BE000D
:101D20000008B400B009AA00D00BA000600E960015
:101D300060118C000015820020197800C01D6E0013
:101D4000A0226400B0275A00902C500000314600B9
:101D5000E0343C0010383200903A2800603C1E000D
:101D6000A03D1400803E0A00203F0000504944205E
:101D70004175746F74756E652066696E6973686508
:101D800064212050757420746865206C6173742020
:101D90004B702C204B6920616E64204B6420636F74
:101DA0006E7374616E74732066726F6D2061626F02
:101DB000766520696E746F20436F6E666967757211
:101DC0006174696F6E2E6800504944204175746FCC
:101DD00074756E65206661696C6564212074696D37
:101DE000656F75740020403A00543A00423A005042
:101DF0004944204175746F74756E65206661696C25
:101E00006564212054656D7065726174757265201A
:101E1000746F6F206869676800204B643A20002067
:101E20004B693A2000204B703A200020436C6173CC
:101E30007369632050494420002054753A200020E3
:101E40004B753A2000206D61783A2000206D696E54
:101E50003A200020643A200020626961733A200031
:101E600045787472756465722066616E2073706562
:101E70006564206973206C6F776572207468616E89
:101E8000206578706563746564005072696E7420B3
:101E900066616E207370656564206973206C6F776E
:101EA0006572207468616E2065787065637465641E
:101EB0000020484F54454E4420544845524D414C13
:101EC0002052554E41574159002048454154424502
:101ED0004420544845524D414C2052554E415741A3
:101EE0005900544845524D414C2052554E4157419E
:101EF000590042454420544845524D414C205255CA
:101F00004E415741590020544845524D414C2052B2
:101F1000554E41574159202850524548454154207B
:101F2000484F54454E44290050524548454154209D
:101F30004552524F52004D494E54454D5020414D4F
:101F400042004D415854454D50004D415854454D67
:101F50005020424544004D415854454D5020414D7C
:101F60004200202D20496E76616C6964206578748A
:101F70007275646572206E756D62657220210070E5
:101F8000012C0190012701B0012201C0011D01F0C7
:101F90000118011002130130020E016002090190C4
:101FA000020401C002FF000003FA004003F50080B4
:101FB00003F000D003EB002004E6007004E100E031
:101FC00004DC004005D700C005D2004006CD00D09B
:101FD00006C8008007C3003008BE00F008B900C082
:101FE00009B400B00AAF00B00BAA00D00CA50000E5
:101FF0000EA000500F9B00C01096005012910000E0
:10200000148C00C0158700B0178200B0197D00D075
:102010001B7800001E730040206E0090226900F0C3
:1020200024640040275F0090295A00E02B550010DF
:102030002E500020304B0010324600E0334100901B
:10204000353C001037370070383200A0392D00B011
:102050003A2800A03B2300603C1E00103D19009070
:102060003D1400103E0F00703E0A00C03E05000007
:102070003F000090137D00B0157800F017730060EA
:102080001A6E00F01C6900A01F640050225F00203F
:10209000255A00E0275500902A5000202D4B00A023
:1020A0002F4600F031410010343C00F0353700A0DD
:1020B00037320020392D00603A2800703B23006041
:1020C0003C1E00203D1900C03D1400403E0F00A002
:1020D0003E0A00F03E0500403F0000703FFBFF90CD
:1020E0003FF6FFB03FF1FFC03FECFFD03FE7FFE01E
:1020F0003FE2FFF03FDDFFF03FD8FF4572723A202C
:1021000000207472696767657265642100486561C3
:1021100074657273207377697463686564206F6691
:10212000662E20003A2000464C4558202D202032B3
:1021300034302F35300050502020202D20203235D3
:10214000342F3130300048495053202D2020323276
:10215000302F3130300041425320202D20203235A5
:10216000352F3130300050564220202D2020323182
:10217000352F37350050432020202D202032373591
:102180002F3131300041534120202D202032363074
:102190002F3130350050455420202D20203233304F
:1021A0002F383500504C4120202D20203231352F42
:1021B0003630006E6F7A7A6C65202D2020323530F3
:1021C0002F30006661726D2020202D2020323530A6
:1021D0002F383000252D31322E313253252B382E19
:1021E00031660045787472756465723A006D6D00F1
:1021F00059005800583A00593A005A3A00256325C8
:102200002D31332E313353252B352E3366002533B4
:1022100075002533642F2533640022206661696CC4
:1022200065643A204275666665722066756C6C213D
:10223000002200256920686F757273202569206D62
:10224000696E757465730052582074696D656F7599
:1022500074004D3131300046756C6C20525820426C
:10226000756666657200437573746F6D00536174B3
:10227000696E200054657874757200536D6F6F74C9
:10228000680047312059252D2E32662045252D2EF8
:102290003366004731205825642059252D2E32669B
:1022A0002045252D2E3366006673656E736F725F51
:1022B000636865636B706F696E745F7072696E746A
:1022C000006673656E736F722076302E3420696EEF
:1022D000206661756C742072616E676520342E36DD
:1022E0002D3556202D20756E636F6E6E6563746597
:1022F00064006673656E736F7220696E20666F721C
:1023000062696464656E2072616E676520312E3586
:102310002D3356202D20636865636B2073656E73C3
:102320006F72006F6B0A0073746172740A004D4D16
:102330005532206669726D776172652076657273B9
:10234000696F6E20696E76616C69642E20526571CA
:1023500075697265642076657273696F6E3A206282
:1023600075696C64206E756D626572202564206FDE
:1023700072206869676865722E004D4D55203D3E9C
:1023800020276F6B270A004D4D55203D3E20276FBB
:102390006B270A002564004D4D55203D3E20276FD8
:1023A0006B272C20726573756D65207072696E7471
:1023B0000A004D4D55207265747279206174746500
:1023C0006D7074206E722E2025640A004D4D5520CC
:1023D0003D3E20276F6B270A00410A004D4D5520D6
:1023E0003C3D202741270A004D363030004D363025
:1023F00030204155544F002568687500410A004D52
:102400004D55203C3D202741270A0050300A004D01
:1024100025640A004D4D55203C3D20274D2564275D
:102420000A0057300A004D4D55203C3D20275730BB
:10243000270A0053330A004D4D55203C3D202753B9
:1024400033270A0052300A004D4D55203C3D2027CD
:102450005230270A004B25640A004D4D55203C3D63
:1024600020274B2564270A004525640A004D4D5559
:10247000203C3D2027452564270A0055300A004DA1
:102480004D55203C3D20275530270A0043300A0097
:102490004D4D55203C3D20274330270A004C2564F4
:1024A0000A004D4D55203C3D20274C2564270A004D
:1024B0005425640A004D4D55203C3D202754256489
:1024C000270A004D4D55202D20454E41424C454494
:1024D00000256868750050300A004D310A004D4DE6
:1024E00055203C3D20274D31270050300A004D4DEE
:1024F000552076657273696F6E2076616C69640031
:102500004D4D55203D3E202725646F6B270A002541
:10251000750053320A004D4D55203C3D2027533263
:1025200027004D4D55203D3E202725646F6B270A1F
:10253000002575004D4D55206E6F742072657370C7
:102540006F6E64696E67202D2044495341424C45AB
:10255000440053310A004D4D55203C3D2027533156
:1025600027004D4D55203D3E20277374617274271E
:10257000006572726F723A20756E6B6E6F776E20A7
:102580006D6F7665006E6F206D6F766500542D63FC
:102590006F646500756E6C6F6164006C6F616400E0
:1025A0006D6D755F6765745F726573706F6E73656F
:1025B000202D20626567696E206D6F76653A200078
:1025C0006D6D755F6765745F726573706F6E73654F
:1025D00028292072657475726E696E673A202564C9
:1025E0000A00556E6C6F6164696E672066696E697A
:1025F00073686564203200556E6C6F616420320030
:10260000556E6C6F6164696E672066696E69736888
:102610006564203100556E6C6F61642031004D4D52
:10262000552073746172747320726573706F6E6479
:10263000696E67004D4D55206E6F74207265737022
:102640006F6E64696E670046696C616D656E7420BB
:102650006F7574206F662072616E67652025642037
:102660000A000000803F555585410000803F000072
:10267000C84100000040555505420000C03F000021
:1026800048420000204055558542000070C1ABAA69
:10269000A642000060C10000A0410000C0C00000D0
:1026A000204100002041ABAA3A41000020C155550D
:1026B000D540000048C2555505424D3730312045C0
:1026C00034004D373031204533004D37303120450F
:1026D00032004D373031204531004D373031204503
:1026E000300046696C616D656E74206E72206F7586
:1026F00074206F662072616E6765210020666169D3
:102700006C65642E00207375636365656465642E73
:10271000004D4D552063616E5F6C6F61643A0041FE
:1027200064646974696F6E616C206C6F61642061B0
:102730007474656D7074206E722E2025640A0020FA
:10274000557067726164696E672078666C61736842
:102750000A20446F206E6F7420646973636F6E6E1D
:102760006563742100773235783230636C5F63665D
:102770006D0A00773235783230636C5F656E746550
:10278000720A0073746172740A00473830004D3465
:1027900035004D3435205A004737360057697A6185
:1027A00072642073746174653A2025640A00457868
:1027B000706572696D656E74616C004673656E73E9
:1027C0006F7220446574656374696F6E0024F4D47D
:1027D0003050C38E20C2A24017828B7011127A91A2
:1027E0000D816CD90AA861E108C758660761514399
:1027F000061E4B5D05C145A7041A411104093D9809
:1028000003713931034036DB0265339102D4305411
:1028100002802E1D02632CEE01752AC501B028A08E
:1028200001102781018F2564012B244B01E0223404
:1028300001AC211F018D200D01801FFC00841EEDC5
:1028400000971DDF00B81CD200E61BC600201BBC91
:1028500000641AB200B219A8000A19A0006A1899F7
:1028600000D117910040178B00B516840031167EF9
:1028700000B31579003A157300C7146F0058146A35
:1028800000EE1366008813630025135E00C7125B19
:10289000006C12570015125400C111510070114FF5
:1028A0000021114B00D61049008D104700461044FE
:1028B0000002104200C00F4000800F3E00420F3C5B
:1028C00000060F3B00CB0E3800930E37005C0E3530
:1028D00000270E3400F30D3200C10D3100900D3091
:1028E00000600D2E00320D2D00050D2C00D90C2B93
:1028F00000AE0C2900850C29005C0C2700350C2744
:10290000000E0C2600E80B2400C40B2400A00B23AF
:10291000007D0B23005A0B2100390B2100180B20DE
:1029200000F80A1F00D90A1E00BB0A1E009D0A1DDE
:1029300000800A1D00630A1C00470A1B002C0A1BAA
:1029400000110A1A00F7091A00DD091900C4091953
:1029500000AB091900920917007B091800630917D9
:10296000004C09160036091600200916000A091540
:1029700000F5081500E0081400CC081400B808148D
:1029800000A4081400900813007D0812006B0813BF
:1029900000580812004608120034081100230811DC
:1029A000001208110001081100F0071000E00710E4
:1029B00000D0071000C0071000B0070F00A10710DB
:1029C0000091070E0083070F0074070F0065070EC4
:1029D0000057070E0049070E003B070D002E070E9B
:1029E0000020070D0013070D0006070D00F9060C67
:1029F00000ED060D00E0060C00D4060C00C8060C25
:102A000000BC060C00B0060C00A4060B0099060CD6
:102A1000008D060B0082060B0077060B006C060B80
:102A20000061060A0057060B004C060A0042060A1F
:102A30000038060A002E060A0024060A001A060AB2
:102A4000001006090007060A00FD050900F4050943
:102A500000EB050900E2050900D9050900D00509C8
:102A600000C7050900BE050900B5050800AD050849
:102A700000A50509009C050800940508008C0508C0
:102A800000840508007C050800740508006C050733
:102A900000650508005D050700560508004E05079E
:102AA0000047050700400508003805070031050705
:102AB000002A050700230507001C05060016050768
:102AC000000F0507000805060002050700FB0406C5
:102AD00000F5040700EE040600E8040600E204071F
:102AE00000DB040600D5040600CF040600C9040676
:102AF00000C3040600BD040600B7040600B10405C7
:102B000000AC040600A6040600A00405009B040611
:102B10000095040500900406008A0405008504055C
:102B200000800406007A04050075040500700405A1
:102B3000006B04050066040500610405005C0405E3
:102B40000057040500520405004D04050048040523
:102B500000430405003E0404003A04050035040562
:102B600000300404002C040500270404002304059D
:102B7000001E0404001A04040016040500110404D5
:102B8000000D04040009040500040404000004040A
:102B900000FC030400F8030400F4030400F0030441
:102BA00000EC030400E8030400E4030400E0030471
:102BB00000DC030400D8030400D4030400D00304A1
:102BC00000CC030400C8030300C503030024F4047D
:102BD000D9201BC40C5C0E9804C4095F0265077100
:102BE00001F405F900FB04B30048048700C1036940
:102BF000005803550003034500BE023A0084023129
:102C00000053022A002902250004022000E4011CCE
:102C100000C8011900AF01170098011400840113C6
:102C200000710110006101100051010E0043010DFF
:102C30000036010B002B010B0020010B00150109D0
:102C4000000C01090003010800FB000800F3000864
:102C500000EB000700E4000600DE000600D80006D6
:102C600000D2000600CC000500C7000500C2000528
:102C700000BD000400B9000400B5000400B1000468
:102C800000AD000400A9000400A5000300A2000399
:102C9000009F0004009B00030098000300950002C1
:102CA0000093000300900003008D0002008B0003DE
:102CB00000880002008600020084000300810002F8
:102CC000007F0002007D0002007B0002007900020C
:102CD000007700010076000200740002007200011B
:102CE00000710002006F0002006D0001006C000224
:102CF000006A00010069000200670001006600012F
:102D00000065000100640002006200010061000132
:102D100000600001005F0002005D0001005C000136
:102D2000005B0001005A0001005900010058000139
:102D30000057000100560001005500010054000139
:102D40000053000000530001005200010051000137
:102D500000500001004F0001004E0000004E000135
:102D6000004D0001004C0001004B0000004B000131
:102D7000004A00010049000100480000004800012D
:102D80000047000100460000004600010045000029
:102D90000045000100440001004300000043000121
:102DA000004200000042000100410000004100011B
:102DB00000400001003F0000003F0001003E000015
:102DC000003E0001003D0000003D0001003C00000D
:102DD000003C0000003C0001003B0000003B000103
:102DE000003A0000003A00010039000000390001FB
:102DF00000380000003800000038000100370000F3
:102E000000370001003600000036000000360001E7
:102E100000350000003500000035000100340000DE
:102E200000340000003400010033000000330000D3
:102E300000330001003200000032000000320001C7
:102E400000310000003100000031000100300000BE
:102E50000030000000300001002F0000002F0000B3
:102E6000002F0000002F0001002E0000002E0000A7
:102E7000002E0001002D0000002D0000002D00009C
:102E8000002D0001002C0000002C0000002C000090
:102E9000002C0001002B0000002B0000002B000084
:102EA000002B0001002A0000002A0000002A000078
:102EB000002A00010029000000290000002900006C
:102EC000002900000029000100280000002800005F
:102ED0000028000000280000002800010027000052
:102EE0000027000000270000002700000027000145
:102EF000002600000026000000260000002600003A
:102F0000002600010025000000250000002500002B
:102F1000002500000025000000250001002400001D
:102F20000024000000240000002400000024000110
:102F30000023000000230000002300000023000005
:102F400000230000002300000023000100220000F5
:102F500000220000002200000022000000220000E9
:102F600000220001002100000021000000210000DB
:102F700000210000002100000021000000210001CC
:102F800000200000002000000020000000200000C1
:102F900000200000002000000020000000200001B0
:102FA000001F0000001F0000001F0000001F0000A5
:102FB000001F0000001F0000001F0001001E000095
:102FC000001E0000001E0000001E000000626F6F67
:102FD000745F6170705F6D61676963203D30782553
:102FE00030386C780A00626F6F745F6170705F6672
:102FF0006C616773203D3078253032780A00626F4B
:103000006F745F726573657276656420203D3078F9
:10301000253032780A00626F6F745F636F70795F7A
:1030200073697A65203D3078253034780A00626F04
:103030006F745F6473745F6164647220203D3078E4
:103040002530386C780A00626F6F745F7372635F4B
:103050006164647220203D30782530386C780A0035
:103060005553415254322072782046756C6C2121A0
:10307000210053657474696E67732053746F7265B1
:10308000640053746F7265642073657474696E674D
:103090007320726574726965766564004861726454
:1030A000636F6465642044656661756C7420536564
:1030B0007474696E6773204C6F6164656400563286
:1030C00000000000C8420000C8420000C8430000E1
:1030D0008C4300004843000048430000404100008A
:1030E000F042E8030000E8030000C8000000881375
:1030F000000000409C4400409C4400000000000090
:103100000000204E00000000204100002041CDCCF6
:10311000CC3E0000904000000000000000000000D5
:103120000000CDCCCC3E3D0A8141FF08433EB09922
:10313000AB438F42FC42E65A343F4C62B04500003C
:103140000000004040000034420000000000000089
:103150000000000041000000E03F0000C842000005
:10316000C842000040410000F042C0030000C0031C
:103170000000C8000000881300001010102000405C
:103180009C440000803F0000003F1914000000FF35
:10319000FFFFFF4E6F2030784646207265636569F9
:1031A0007665640053656E64696E672030784646C4
:1031B000002022257322002025236C7800444952E8
:1031C0005F45584954004449525F454E5445523A70
:1031D00020257320222573220A0046696C6520731E
:1031E000656C6563746564002053697A653A2000F4
:1031F00046696C65206F70656E65643A20004E6F9D
:10320000772066726573682066696C653A20004EA7
:103210006F7720646F696E672066696C653A20007D
:103220002220706F73002220706172656E743A22E2
:1032300000535542524F5554494E452043414C4C42
:10324000207461726765743A2200747279696E67DE
:1032500020746F2063616C6C207375622D67636FDF
:1032600064652066696C6573207769746820746F83
:103270006F206D616E79206C6576656C732E0046EB
:10328000696C616D656E742073656E736F72206218
:103290006F617264206368616E6765206465746540
:1032A000637465643A207265766973696F6E25533D
:1032B0000A0050494E44412063616C696272617436
:1032C000696F6E206661696C65642E20436F6E7451
:1032D000696E7565207769746820707265737369AB
:1032E0006E6720746865206B6E6F622E0050494EC9
:1032F00044412063616C6962726174696F6E20641D
:103300006F6E652E20436F6E74696E7565207769E8
:103310007468207072657373696E672074686520C5
:103320006B6E6F622E007B5B4552523A00332E313A
:10333000312E31005D5B4657523A005D5B54494D7A
:103340003A005D5B464E4D3A005D5B46454D3A00A6
:103350005D5B5043443A005B5446553A007B5B50FA
:10336000524E3A39395D007B5B50524E3A355D0022
:103370007B5B50524E3A305D007B5B50524E3A3987
:103380005D007B5B50524E3A385D007B5B5245538B
:103390003A305D5B46494C3A007B5B5245533A31CB
:1033A0005D5B46494C3A005B50524E3A005B5046DA
:1033B0004E3A305D005B4449413A005D5B41544206
:1033C0003A005D5B4154303A005D5B5354423A0031
:1033D0005B5354303A004D36303000626574610002
:1033E000616C706861006465760003000B00010089
:1033F0007B1350525553413344465700000021007F
:10340000240027002A002D003000330001010000B5
:10341000040107010A0100002200250028002B00FA
:103420002E003100340002010000050108010B01EB
:10343000000020002300260029002C002F0032006D
:103440000001000003010601090105050505070546
:1034500008080808020202020A0A08080404040410
:10346000010101010101010103030303030303033C
:10347000040707070C0C0C0C0C0C0C0C02020202CB
:1034800006060606060606060B0B0B0B0B0B0B0BB4
:1034900007070A0A0A0A0A0A0505050404040808B7
:1034A0000102102020080810204010204080020156
:1034B000020108040201010204081020408080403B
:1034C000201008040201800402018040201008043A
:1034D00002010804020101020408102040800102D8
:1034E0000408102040801008040880102040044088
:1034F00080102040048000000A0B02090C0D0E0809
:1035000007030401000000000000000000000000AC
:1035100000000000000000000000000000000000AB
:103520000000121110000000000000000000000068
:10353000000000000000000000000000000000008B
:10354000000000000000000000000000000021104A
:10355000422063308440A550C660E77008812991FD
:103560004AA16BB18CC1ADD1CEE1EFF131121002A5
:1035700073325222B5529442F772D662399318834D
:103580007BB35AA3BDD39CC3FFF3DEE36224433471
:1035900020040114E664C774A44485546AA54BB59D
:1035A00028850995EEE5CFF5ACC58DD55336722645
:1035B00011163006D776F6669556B4465BB77AA7ED
:1035C00019973887DFF7FEE79DD7BCC7C448E55891
:1035D0008668A7784008611802282338CCC9EDD93D
:1035E0008EE9AFF9488969990AA92BB9F55AD44AE5
:1035F000B77A966A711A500A333A122AFDDBDCCB8D
:10360000BFFB9EEB799B588B3BBB1AABA66C877CB0
:10361000E44CC55C222C033C600C411CAEED8FFDDC
:10362000ECCDCDDD2AAD0BBD688D499D977EB66E84
:10363000D55EF44E133E322E511E700E9FFFBEEF2C
:10364000DDDFFCCF1BBF3AAF599F788F8891A981EE
:10365000CAB1EBA10CD12DC14EF16FE18010A100D8
:10366000C230E3200450254046706760B9839893C8
:10367000FBA3DAB33DC31CD37FE35EF3B102901228
:10368000F322D2323542145277625672EAB5CBA594
:10369000A89589856EF54FE52CD50DC5E234C32478
:1036A000A01481046674476424540544DBA7FAB768
:1036B0009987B8975FE77EF71DC73CD7D326F236C8
:1036C0009106B01657667676154634564CD96DC9B4
:1036D0000EF92FE9C899E9898AB9ABA94458654818
:1036E00006782768C018E1088238A3287DCB5CDB08
:1036F0003FEB1EFBF98BD89BBBAB9ABB754A545A68
:10370000376A167AF10AD01AB32A923A2EFD0FEDD3
:103710006CDD4DCDAABD8BADE89DC98D267C076CB7
:10372000645C454CA23C832CE01CC10C1FEF3EFFA7
:103730005DCF7CDF9BAFBABFD98FF89F176E367E07
:10374000554E745E932EB23ED10EF01E7C3C3E3F31
:103750002F2A225C004D203834004D3834004D3281
:1037600034004D323320257300052E2E0062757310
:10377000793A2070617573656420666F7220696E96
:1037800070757400627573793A2070617573656441
:1037900020666F72207573657200627573793A20C6
:1037A00070726F63657373696E670000007F43001A
:1037B0008054430000524300000000000080C09A83
:1037C00099193E00000000000080C09A99193E003F
:1037D00000A0400000A0400000004025336420739A
:1037E0007465703D253264206D73636E743D2534BD
:1037F000640A0000007F43008058439AD95143FF78
:10380000FFFF20413A0020503A002042403A002079
:10381000403A00202F00205400202F0020423A0080
:10382000202F00543A004D494E54454D5000506CE5
:1038300065617365207265737461727400452D6DE6
:103840006F746F722063757272656E74207363613A
:103850006C696E6720656E61626C656400746D638F
:10386000323133305F686F6D655F656E74657228E5
:10387000617865735F6D61736B3D307825303278A8
:10388000290A00746D63323133305F686F6D655F94
:103890006578697420746D63323133305F73675FAC
:1038A000686F6D696E675F617865735F6D61736B7B
:1038B0003D3078253032780A00252D31362E3136CC
:1038C00053252D34640A252D31362E313653252DBE
:1038D00034640A0025530A20252D31362E31365303
:1038E000252D33640A20252D31362E313653252DD2
:1038F00033640025530A20252D31362E31365325C9
:103900002D33640A20252D31362E313653252D33A3
:10391000640A20252D31362E313653252D3364008F
:1039200025530A20252D31362E313653252D33646B
:103930000A20252D31362E313653252D33640A20A9
:10394000252D372E37535820252D3364202059201C
:10395000252D33640020257325336401200A000AD5
:10396000204952203A2020202020202025332E31AB
:10397000665600205057523A20202020202025341F
:103980002E3166560A204245443A2020202020202D
:1039900025342E3166560025530A20582025640A06
:1039A00020592025640025752E25752E25752E2578
:1039B000750025730020002573002000466C61739C
:1039C0006841697220495020416464723A004D4D4B
:1039D0005532202020202020204E2F410025642E0B
:1039E00025642E25642D2564002046573A0046693B
:1039F0006C2E2073656E736F7220762E3A004175BF
:103A0000672031302032303232004533447636661A
:103A1000756C6C0045494E53795F31306100315F00
:103A200037356D6D5F4D4B3353002D2D2D2D2D2DC5
:103A30002D2D2D2D2D2D00207265706F20556E6B54
:103A40006E6F776E0020332E31312E312D343938A0
:103A500037004669726D776172653A004D373032D2
:103A6000004D373031004D373032004D37303100A6
:103A700057726974696E6720746F2066696C653A65
:103A8000200046696C6520616C7265616479206F05
:103A900070656E656400257500593A202575202DE6
:103AA0003E202E2E2E00257500583A202575202DFB
:103AB0003E202E2E2E004D65617375726564206662
:103AC000696C616D656E742073656E736F72206CC6
:103AD0006F77206C6576656C3A2025342E326656F9
:103AE0000A004D656173757265642066696C616D6D
:103AF000656E742073656E736F72206869676820E5
:103B00006C6576656C3A2025342E3266560A00259F
:103B100033642F30002533642F30004D38340025B6
:103B2000632041584953205347313D25640A0044DE
:103B3000697361626C65206661726D206D6F64658A
:103B4000004D3834004D34340047323820570020BF
:103B50000A200A20004739390044697361626C65A4
:103B6000206661726D206D6F64653F004D323400D8
:103B70004D3233202573006175746F25692E6700FF
:103B800022206661696C65643A20427566666572DA
:103B90002066756C6C2100456E717565696E6720D5
:103BA000746F207468652066726F6E743A2022000C
:103BB0004572726F723A002200456E717565696ECA
:103BC0006720746F207468652066726F6E743A2087
:103BD00022006563686F3A00454550524F4D2045BD
:103BE00072726F72004D494E54454D50204245440B
:103BF000206669786564004D494E54454D50204813
:103C00004F54454E44206669786564004D36303027
:103C1000006673656E736F725F75706461746520A2
:103C20002D204D3630300049522073656E736F720F
:103C3000206E6F7420726573706F6E64696E67209A
:103C400028256429210A0078797A63616C5F737092
:103C50006972616C322063783D25642063793D256B
:103C600064207A303D256420647A3D2564207261A9
:103C7000646975733D25642061643D25640A0050C4
:103C800061747465726E2063656E746572205B2565
:103C9000662025665D2C206D61746368202566258D
:103CA000250A00205B25662C2025665D5B25665D68
:103CB0002066696E616C20636972636C650A0074CA
:103CC0006D63323133305F676F746F5F737465702B
:103CD000202564202564202564202564200A0048CE
:103CE0006F74656E6400426564005A0059005800A4
:103CF0002D2D2D2D2D2D2D2D2D2D2D2D2D2D2D2DF4
:103D00002D2D2D2D004F4B00435A5058496E766192
:103D10006C696453657269616C4E7200206D6963F1
:103D2000726F6E73004578636573736976652062A0
:103D30006564206C6576656C696E6720636F72726E
:103D4000656374696F6E3A2000426564206C657625
:103D5000656C696E67206661696C65642E205365C9
:103D60006E736F7220747269676765726564207420
:103D70006F6F20686967682E00426564206C657605
:103D8000656C696E67206661696C65642E20536599
:103D90006E736F7220646973636F6E6E65637465B2
:103DA00064206F72206361626C652062726F6B6564
:103DB0006E2E0020453A00205A3A0020593A002041
:103DC000453A00205A3A0020593A00583A006763B1
:103DD0006F64655F4D37303120626567696E0A0038
:103DE000252D392E39535B002563252D31382E3191
:103DF000387325630000D702690211241FBECFEF7C
:103E0000D1E2DEBFCDBF00E00CBF13E0A0E0B2E026
:103E1000E0E0FEEB03E00BBF02C007900D92A23A78
:103E2000B107D9F727E1A2EAB3E001C01D92AA3990
:103E3000B207E1F71EE1CCEFDEE100E006C021971A
:103E40000109802FFE010F940CADCB3FD10780E01C
:103E50000807A9F70F94A0740D941FAE0D94E32BDF
:103E60002F923F924F925F926F927F928F929F928A
:103E7000AF92BF92CF92DF92EF92FF920F931F9378
:103E8000CF93DF93CDB7DEB7C454D1090FB6F89402
:103E9000DEBF0FBECDBF8091D104823061F483E0DC
:103EA0008093D10480910A0C882319F00F94E2408A
:103EB00002C00F94E6408091100790911107892B62
:103EC00011F40C94BF4D82E080934E0286ED91E197
:103ED0000F94412D8823C1F08091AD059091AE05DE
:103EE0006AE270E005960F946BAD009711F0DC016B
:103EF0001C928091AD059091AE0505960F943D6C96
:103F000087E08093950616C083ED91E10F94412DD3
:103F1000811117C08FEC91E10F94412D811111C0D7
:103F2000A3C00E94124E80912A0C882309F492C0EB
:103F30001092950681E080934E020F94685D0C9478
:103F4000BF4D0091AD051091AE0580E50F94552D44
:103F5000882309F484C00F94362D6B017C01BB24A7
:103F6000B394672B682B692B09F4B12C83E50F946C
:103F7000552D882381F00F94362D9B01AC01A8EEBE
:103F8000B3E00F94D2A76B017C01AA24A394672B02
:103F9000682B692B09F4A12C0E5F1F4F6AE270E0B9
:103FA000C8010F946BAD009711F0FC0110829801CD
:103FB000C9012F5F3F4FDC014C914032C9F326E02D
:103FC00020939506B11008C0A11006C02C912223A1
:103FD00019F00F943D6C0DC080915906811107C0F6
:103FE0008CEE9CE60E9489FB0F94B26A02C010928C
:103FF000950681E08093300510922F050E94D0A194
:104000008DE09CE00E9438B3C114D104E104F104B6
:1040100009F487CF0E9485F9C60ED71EE81EF91E47
:1040200084E080934E020E9485F96C157D058E0513
:104030009F0510F00C949B4B0E94AC6981110C946D
:104040009B4B0E94D69981E00F94F85980E00E9422
:10405000DF68E9CF84E190E60F94B26A6BCFB12CB0
:10406000C12CD12C760182CFC090FF08D0900009DE
:1040700086010B5E184F46E050E068EC71E1C80124
:104080000F94A6A1892B09F0F4C089EB91E10F945C
:10409000412D882309F4BBC088E50F94552D182FB6
:1040A00089E50F94552D811112600E94D0A11982CB
:1040B0001A821B821C82FE01359681E1DF011D926E
:1040C0008A95E9F748EC5FEA60E070E082E19CE005
:1040D0000E94B0B281111092A4030091A4030F5F5B
:1040E0000093A40382E19CE00E9438B38091A30373
:1040F000812B8093A30381E00E9478710E94447118
:1041000082E00E94DF6810FF15C086E69FE00F94F2
:1041100045A761E0680F86E69FE00F9469A785E0F8
:104120009FE00F9453A7BC016F5F7F4F85E09FE036
:104130000F9487A711FF15C088E69FE00F9445A74D
:1041400061E0680F88E69FE00F9469A783E09FE035
:104150000F9453A7BC016F5F7F4F83E09FE00F94E4
:1041600087A781E00E94787182E00E94DF68612F5A
:10417000CE0101960F94F32BCE0101960F943D6C66
:1041800040E061E081E00F9454320E94D0A10330FE
:1041900020F461E085E19EE037C0E0915517F0E042
:1041A000EE0FFF1FED59F94F1182108280E00E943F
:1041B00078710E9444716091A303CE0101960F941F
:1041C000F32B1092A303CE0101960E94D37261E0FB
:1041D00080E00E94606A8BEC93E80E9489FB0E9459
:1041E0004A6A8FE30E944E6A60E080E00E9486AADD
:1041F000182F81E00E94787161E0112319F087E0A7
:104200009EE002C08AEF9DE00E944EB093CE8BEA02
:1042100091E10F94412D882379F060E070E080E80F
:104220009FE30E94815E0F946B6A882309F482CE1B
:1042300081E0809311027ECE8EE991E10F94412DB1
:10424000882309F477CE1092920681E080931102C0
:104250008091D204811103C00F9497286BCE8130D6
:1042600009F068CE8BE897E60F94C72C0E9432B213
:1042700061CE44E050E069E971E1C8010F94A6A164
:10428000892B09F007C18601075E184F49E050E00D
:104290006FE871E1C8010F94A6A1892BC9F4F6015A
:1042A000EE5DF84F1081153429F01855143008F0E0
:1042B00041CE01C013E04AE050E060E070E0C6018A
:1042C0008D5D984F0F94559F812F0F943A5632CEA3
:1042D00049E050E065E871E1C8010F94A6A1892B7F
:1042E00051F5F601EE5DF84F1081153429F018559F
:1042F000143008F01FCE01C013E04AE050E060E047
:1043000070E0C6018D5D984F0F94559FE12FF0E04E
:10431000EA54FB4F40E051E0008002C056954795BB
:104320000A94E2F7842F880F880F81506823812F29
:104330000F94EA5EFFCD49E050E06BE771E1C80100
:104340000F94A6A1892B09F0F5CDF601EE5DF84F8B
:104350008081853441F048EAB42EB80EB3E0BB1535
:1043600008F4E8CD02C033E0B32EEB2CF12C47016A
:10437000880C991CF401E359FD4F1081012F0F7037
:10438000712E72942FE07222272D2770722E111F2A
:104390001127111F61816770660F162BF401E25916
:1043A000FD4F9081A92EA694A694A6943A2D337021
:1043B000A32E1A821982C6018D5D984FDC012C91C3
:1043C0002223E1F14AE050E0BE016F5F7F4F0F947E
:1043D000559F062F0F7089819A81009779F1FC0112
:1043E0002081222359F14AE050E0BE016F5F7F4FE8
:1043F0000F94559F6770762E89819A810097F1F00E
:10440000DC012C912223D1F04AE050E0BE016F5F25
:104410007F4F0F94559F162F1F7089819A810097A7
:1044200069F0FC012081222349F04AE050E0BE01FE
:104430006F5F7F4F0F94559F6370A62EF401E35971
:10444000FD4F272D27702295207F612F67956627C6
:104450006795202B262B2083212F26951181107EF6
:104460009A2D9370990F990F990F122B192B118375
:10447000C701865E9D4FD701A25EBD4FB7016A544A
:104480007B4FFC0120814C91DB016C918B2D0F94B3
:104490004A3350CD85E791E10F94412D882309F4EB
:1044A000A1C180E791E10F94412D882381F0809193
:1044B0005906882309F43ECD0E9485F96093240CA7
:1044C0007093250C8093260C9093270C33CD8CE6AB
:1044D00091E10F94412D882341F0809171061F9244
:1044E0008F9381E29FE50C94B62B82E691E10F94C5
:1044F000412D882309F43DC01092F60614E6C12C24
:10450000D12C76016F9A779864E170E080E090E0BA
:104510000E944BF90E9425F94B015C01F8946F98B9
:10452000679BFECF78940E9425F9DC01CB018819A6
:104530009909AA09BB09C816D906EA06FB0610F4B0
:104540006C017D011150F1F68FEE9DE00F940E2C61
:10455000B5EFCB16B1E0DB06E104F10418F08BEE09
:104560009DE002C088EE9DE00F94C72C6F98779A6B
:10457000E1CC8EE591E10F94412D8823D9F0409153
:104580007E0450917F042CE3249FC001259F900D51
:1045900011249F938F9340917C0450917D04249F1C
:1045A000C001259F900D11249F938F938AE09FE572
:1045B0000C94794B8AE591E10F94412D882319F0F1
:1045C0001092C004B7CC85E591E10F94412D88236A
:1045D00049F060E085EA9FE00F9469A761E081E51A
:1045E00091E112CE8AE491E10F94412D882319F0D4
:1045F0000E9490C09FCC84E491E10F94412D8823C8
:1046000081F08AEA95E5DC018093FC1F9093FD1F01
:10461000A093FE1FB093FF1F88E08093FB1F0F94B1
:10462000C42B81E491E10F94412D882381F1809185
:10463000AD059091AE0561E003960F944F048BEBAE
:104640009EE00E9442B68C018091C30E9091C40EF0
:10465000A091C50EB091C60E80933F0F9093400F6E
:10466000A093410FB093420F802F0E9481F40A3033
:10467000110529F78BEB9EE00F94601A8BEB9EE0FF
:104680000F94DC1B1092280C1092290C53CC8EE353
:1046900091E10F94412D8823A1F044E150E065E1C0
:1046A0007DE0CE0101960F9435A78C89882321F0F7
:1046B00083E391E10C94D549CE0101960F94EFADBF
:1046C00039CC8FE291E10F94412D882319F08FE0CE
:1046D00093E008C08BE291E10F94412D882329F0EB
:1046E0008BE193E00E94C0F525CC86E291E10F9426
:1046F000412D811123C083E291E10F94412D882344
:1047000071F081EA9DE00F9445A7EBE08E9FC00118
:10471000112460E070E0805B924F0C94DB4B80E2F0
:1047200091E10F94412D882361F00E94447140E093
:1047300060E070E084E690E00E94B2F00E94FDF933
:10474000F9CB8CE191E10F94412D8823E1F086E5CE
:104750000F94552D882309F4EDCB0F94292D11E0EA
:10476000892B09F410E00E94D0A1212F30E0809124
:10477000280B90E02817390709F4DCCB1093280B9D
:104780000F94925FD7CB85E191E10F94412D88235F
:1047900009F4D0CB84E40F94552D8823A1F00F9415
:1047A0009B8C20E030E04AE754E40F94289D20E001
:1047B00030E040E05FE30F94EDA70F9460A9CB01D8
:1047C0000F94DE8AB7CB81E191E10F94412D8823CC
:1047D00011F40C94A44B8091590681110C94B74BA1
:1047E0000C94A44B87E40F94552D182F882309F4BB
:1047F0009FC70F94292D9093A6038093A5038B3414
:10480000910509F41AC208F079C08430910509F4C1
:104810008CC148F420915A068230910509F477C181
:1048200008F4B0C07AC18531910509F47BC748F41A
:104830008A30910509F4C3C10B9709F05CC780E089
:10484000BFC18C31910509F4BEC14E9709F053C721
:104850000E94D0A181E080935C170F944B2B8C01B8
:1048600080E090E0A8E4B4E480939E0290939F02DD
:10487000A093A002B093A10243E060E070E080E268
:1048800091EC0F94EB5F70904C1760904D17509027
:104890004E1740904F17B0904817A090491790902E
:1048A0004A1780904B17F0904417E0904517D0902E
:1048B0004617C090471786E096E80E9489FB4F9202
:1048C0005F926F927F928F929F92AF92BF92CF92A0
:1048D000DF92EF92FF929F938F9325EE3EE53F93F9
:1048E0002F930F94D0A2C8010F94312B10925C1714
:1048F0000FB6F894DEBF0FBECDBF14C78835910543
:1049000009F410C7C0F48135910509F4FBC548F4DA
:104910008C34910509F4B4C18035910509F4EFC5D3
:10492000EAC68635910509F43EC68735910509F03A
:10493000E2C681E039C68C35910509F43EC660F4C3
:104940008A35910509F433C68B35910509F0D3C634
:104950008091940687602EC68236910509F4AEC612
:104960008336910509F0C7C61092590681E08093FD
:10497000B90260E084EC9FE00F9469A782E00E9496
:10498000DF68B6C62111CEC60F94409420E030E017
:1049900040E85FEB609158027091590280915A0291
:1049A00090915B020F94C6A38823F9F0E091FF0871
:1049B000F0910009EE5EF84F80818B7F8230A9F480
:1049C00080E1E8E5F2E0A1EEB5E001900D928A9574
:1049D000E1F780E090E0A0E8BFEB8093580290936D
:1049E0005902A0935A02B0935B02609197067091AE
:1049F00098068091990690919A060F94CBA36B012B
:104A00007C01409050175090511760905217709051
:104A100053178090ED059090EE05A090EF05B090B3
:104A2000F005A5019401C301B2010F94ECA720E0A9
:104A300030E048EC52E40F94289D9B01AC01C70183
:104A4000B6010F944DAA1816E4F4A3019201C50112
:104A5000B4010F94ECA720E030E048EC52E40F944E
:104A6000289D9B01AC01C701B6010F94EDA70F94DF
:104A700060A9609397067093980680939906909327
:104A80009A068091F516882309F43EC088E50F94B4
:104A9000552D811139C089E50F94552D811134C0F0
:104AA0008AE50F94552D81112FC085E40F94552D63
:104AB000882351F12091501730915117409152178E
:104AC000509153176091ED057091EE058091EF05BF
:104AD0009091F0050F94ECA76B017C012DEC3CEC60
:104AE0004CEC5DEB0F94C6A387FF02C00C94DF4B28
:104AF0002DEC3CEC4CEC5DE3C701B6010F944DAAE4
:104B0000181614F40C94E84B0F9446920BC621111E
:104B100009C60F940D9581E005C0211103C60F94BD
:104B20000D9580E00F94458EFDC580E50F94552DC1
:104B3000882339F00F949B8C0F9460A96B017C0142
:104B400003C0C12CD12C760183E50F94552D882309
:104B500061F00F949B8C20E030E04AE754E40F941E
:104B6000289D0F9460A96B017C01C114D104E1045C
:104B7000F10441F080919506873021F081E09FE5B6
:104B80000F94B26A0E94D0A10E9485F9C60ED71E6A
:104B9000E81EF91E8DE09CE00E9438B30E9485F962
:104BA0006C157D058E059F0508F0BCC50E94D69941
:104BB00080E00F94F85980E00E94DF68EFCF81E039
:104BC0000F944095AFC588E50F94552D8DA70F9490
:104BD000362D1B012C0189E50F94552D682E0F945D
:104BE000362D69AB7AAB8BAB9CAB8AE50F94552D18
:104BF000D82E0F94362D4B015C0187E50F94552D6F
:104C0000782E83E40F94552D7F928F93CD2CE9A8B5
:104C1000FAA80BA91CA9262DB201A1018DA50F94FC
:104C200067300F900F903DA531117CC561107AC59A
:104C3000711078C5D11076C562C408E210E08CED21
:104C4000E82E8EE5F82E602F70E080E090E00F9463
:104C5000CBA30E9425599F938F937F936F931F93AC
:104C60000F93FF92EF920F94D0A20F5F1F4F0FB6DA
:104C7000F894DEBF0FBECDBF0F36110521F752C528
:104C800020E030E040E251E46091070770910807AE
:104C90008091090790910A070F944DAA87FF03C0DE
:104CA0008DEF90E17DC40E94D9F38A3F38F088EC03
:104CB0009CE60E9489FB0E945FAC34C5809126056A
:104CC000882341F080912705882321F080912805D1
:104CD000811108C081E080930F0786EF90E10F9467
:104CE000EC5720C58FE79CE60E9489FB0E945FACD1
:104CF00089E893E70E9489FB40E060E00E944CACA9
:104D0000882309F461C080E090E0A0EAB0E48093D9
:104D10004C1790934D17A0934E17B0934F1760E028
:104D200070E088E492E40E9402D880E090E0A8E479
:104D3000B2E480934C1790934D17A0934E17B09305
:104D40004F1780E090E0A4E3B3E48093481790937A
:104D50004917A0934A17B0934B1760E070E088E4BE
:104D600092E40E9402D80E94D0A18FE593E70E94AE
:104D700089FB0E945FACECE2F8E185919591A591E9
:104D8000B4918093481790934917A0934A17B09312
:104D90004B17E8E2F8E185919591A591B491809344
:104DA000441790934517A0934617B093471760E0B8
:104DB00070E088E492E40E9402D80E94D0A141E011
:104DC00060E080E00F94543220E030E04CE052E4A8
:104DD00060910707709108078091090790910A0771
:104DE0000F944DAA18160CF084C0809159068111B9
:104DF00080C080E090E0A8ECB2E480934C179093E0
:104E00004D17A0934E17B0934F1760E070E088E401
:104E100092E40E9402D819821A821B821C82CE015F
:104E200001960E9441FE109262061092610619825C
:104E30001A821B821C821D82CE0101960E9438B309
:104E400013E2F12E00EE1DE020E030E04CE052E4F1
:104E500060910707709108078091090790910A07F0
:104E60000F944DAA1816DCF58FE39CE60E9489FB8F
:104E70000E9433AC64E080E00E94606A82E00E949D
:104E8000ED711F92FF926091070770910807809162
:104E9000090790910A070F9459A97F936F931F9365
:104EA0000F930E94CF6981E00E94ED7188EE93E03C
:104EB0000E9461600E94915840E053E567E070E015
:104EC000CE0101960E94B0B20F900F900F900F90FC
:104ED0000F900F90882309F4B7CF10E001C011E0C4
:104EE00081E00E947871111104C080E00F946F8AF4
:104EF00019C40E94D0A181E080935C170E94787150
:104F000088ED90E10F94C72CC0900707D090080758
:104F1000E0900907F0900A0720E030E040EA50E412
:104F2000C701B6010F94E7A80F9459A925E0269F61
:104F3000A001279F500D1124BA01550F880B990B22
:104F40000F94CDA31B012C0120E030E04CE052E493
:104F50000F94C6A387FF06C0212C312CACE04A2E4B
:104F6000B2E45B2EA7019601622D732D842D952D41
:104F70000F94C6A387FF0CC020E030E040EA50E465
:104F8000622D732D842D952D0F94EDA71B012C01FF
:104F90005F924F923F922F9283EC9EE59F938F9367
:104FA0000F94D0A220E030E040EF51E4622D732D49
:104FB000842D952D0F94ECA720E030E04CE852E4CE
:104FC0000F94EDA70F9459A9709362066093610640
:104FD00084E08093950681E080933E0581EE9BE816
:104FE0000E9489FB0F94B26A80E090E0A0EAB0E4EE
:104FF00080934C1790934D17A0934E17B0934F1773
:1050000060E070E088E492E40E9402D880E090E0E2
:10501000A0EAB1E48093441790934517A0934617F4
:10502000B093471780E090E0A0E7B2E48093481780
:1050300090934917A0934A17B0934B1760E070E024
:1050400088E492E40E9402D88AE999E9A9E1BEE3E2
:1050500080934C1790934D17A0934E17B0934F1712
:1050600060E070E088E492E40E9402D80E94D0A13F
:105070000F900F900F900F900F900F90222D332DC7
:10508000442D552D609107077091080780910907FD
:1050900090910A070F94C6A387FF07C088EE93E09C
:1050A0000E9461600E949158E9CF60E086EA9FE02B
:1050B0000F9469A780E090E0A0EAB0E480934C17D9
:1050C00090934D17A0934E17B0934F1760E070E088
:1050D00088E492E40E9402D8E8E2F8E18591959193
:1050E000A591B4918093441790934517A0934617C8
:1050F000B0934717ECE2F8E185919591A591B491B1
:105100008093481790934917A0934A17B0934B1771
:1051100060E070E088E492E40E9402D80E94D0A18E
:1051200043E060E070E080E89FEB0F94EB5F882342
:1051300009F4E0C1B0914C17BDA7E0914D17E9AB60
:10514000F0914E17FDAB20914F1729AF2F93FF938E
:10515000EF93BF9386EB9EE59F938F930F94D0A21E
:105160000F900F900F900F900F900F907EEAC72E28
:105170007FE0D72EAA24AA94BA2CF3E2EF2EF12CCA
:10518000812C912C8501B7010F2C000C880B990BF9
:105190000F94CDA39B01AC013401AFEF6A1A7A0AD8
:1051A000FF92EF927F926F92AAE7BEE5BF93AF9313
:1051B00022966FAF229723963FAF239724964FAF47
:1051C000249725965FAF25970F94D0A20F900F904C
:1051D0000F900F900F900F9022962FAD229723964D
:1051E0003FAD239724964FAD249725965FAD259725
:1051F000FFEFAF16BF0611F40C94AB4D60E070E00A
:10520000C6010F9487A722962FAD229723963FAD14
:10521000239724964FAD249725965FAD2597622D51
:10522000732D842D952D0F94C6A318168CF425E0AC
:105230008216910459F035E0E30EF11C8FEFA81AA5
:10524000B80A92E0C90ED11C43019CCF05E010E0E2
:1052500078013FEFE31AF30A6801CC0CDD1C25E06E
:10526000209FC001219F900D1124212C312CDC01A5
:105270009D962196BFAFAEAF2197412C512C60EA8D
:10528000662E61E4762E35E0E316F1040CF031C1B0
:1052900021966EAD7FAD2197620D731D072E000C18
:1052A000880B990B0F94CDA34B015C01C7010296AB
:1052B0009F938F93ADE6BEE5BF93AF930F94D0A2BB
:1052C00082E08E0D80933E0520E030E040EF51E417
:1052D000C501B4010F94ECA720E030E040E251E4B6
:1052E0000F94289D20E030E040EA50E40F94E7A8B6
:1052F00020E030E048E452E40F94EDA70F9459A960
:10530000709362066093610680E090E0A0EAB0E4EA
:1053100080934C1790934D17A0934E17B0934F174F
:1053200060E070E088E492E40E9402D84092441762
:1053300050924517609246177092471780E090E0B0
:10534000A0E7B2E48093481790934917A0934A17B7
:10535000B0934B1760E070E088E492E40E9402D8BA
:105360008AE999E9A9E1BEE380934C1790934D1720
:10537000A0934E17B0934F1760E070E088E492E47A
:105380000E9402D80E94D0A10F900F900F900F9012
:10539000A5019401609107077091080780910907A2
:1053A00090910A070F94C6A387FF07C088EE93E089
:1053B0000E9461600E949158EBCF80E090E0A0EAEB
:1053C000B0E480934C1790934D17A0934E17B09371
:1053D0004F1760E070E088E492E40E9402D8E8E2AF
:1053E000F8E185919591A591B4918093441790939C
:1053F0004517A0934617B0934717ECE2F8E1859163
:105400009591A591B4918093481790934917A093D3
:105410004A17B0934B1760E070E088E492E40E9472
:1054200002D80E94D0A143E060E070E080E89FEBEA
:105430000F94EB5F460192E0890E911CA5E02A0EC5
:10544000311C811103C00F946F8A53C07DA569A9D7
:105450009DA989AD272F362F492F582F60914C17C2
:1054600070914D1780914E1790914F170F94ECA7A4
:10547000162F072FB82EA92E20917F163091801657
:105480004091811650918216D801F5016B2F7A2F29
:105490008F2F9E2F0F94289D0F9459A96BAF7CAF2F
:1054A0008DAF9EAFAF92BF920F931F9380910A076B
:1054B0008F93809109078F93809108078F93809134
:1054C00007078F93A1E4BEE5BF93AF930F94D0A2DB
:1054D0006BAD7CADC6018E54904F0F9487A7FFEF44
:1054E000EF1AFF0A0FB6F894DEBF0FBECDBF6401FE
:1054F000CACE81E00F946F8A10925C1713C10F948B
:10550000CB9610C18091280B882309F447C08EECFC
:1055100090E10F940E2C67E070E080E090E00E9434
:105520001CF58CE20E9481F467E070E080E090E07E
:105530000E941CF58BEB90E10F940E2C42E060E092
:1055400070E080EA90E40E9438F589EA90E10F94D7
:10555000C72C47E0F42EFA948FEFF81609F4E2C056
:105560009CE1F99E6001112400E010E086EA90E1E0
:105570000F940E2CF801EC0DFD1DE85DF44F6181D8
:1055800072818381948145E00E9438F50C5F1F4F42
:105590000C31110559F70E94B1F5DDCF88E890E193
:1055A0000F94C72CBFC086EE0E94D4F3BBC080917D
:1055B0009406887F80939406B5C06E01A4E2CA0E5B
:1055C000D11CFE0131967F01460100EF12E05F0120
:1055D00034E0732E700ED8018D918D010F94552DEE
:1055E000F40181934F01882341F00F949B8CD701E4
:1055F0006D937D938D939C931397B4E0EB0EF11C08
:105600007012E9CFFFA0FF2001F120E030E0A901F6
:105610006D857E858F8598890F94C6A3811115C0ED
:105620008CA1811112C08DA181110FC08EA1811199
:105630000CC01092501710925117109252171092DE
:10564000531781E0809386046DC00E94D0A100E0D2
:1056500010E0F60181916F018823D1F098012C5B55
:10566000384E4901F801E553F94E208131814281DC
:105670005381F501E00FF11F608171818281938177
:105680000F94EDA7D4016D937D938D939C93139705
:105690000C5F1F4F0C301105E1F6FF2061F08D8586
:1056A0009E85AF85B8898093501790935117A0932A
:1056B0005217B09353170E9482D634C081E0809372
:1056C00059060E9485F96093240C7093250C8093F1
:1056D000260C9093270C6091590684EC9FE00F9460
:1056E00069A71092870660E08FEF9FE00F9469A78B
:1056F0000F94C11917C08091FF08909100098B5E2B
:10570000984F9F938F931F9287E48F938CE29EE52F
:105710009F938F930F94D0A20F900F900F900F90A4
:105720000F900F901092A6031092A5030C949A1F4D
:105730008DE40F94552D882311F40C948249E09147
:10574000AD05F091AE05319691919032E9F3993023
:10575000D9F390539A30A0F08091FF0890910009FE
:105760008B5E984F9F938F9384E790E19F938F93E5
:105770000F94D0A20F900F900F900F900C949A1F3F
:105780000F94292D9093C0058093BF05883C910507
:1057900011F40C94673608F051C18934910509F46D
:1057A000F3C508F0CBC08B31910509F428C3C8F5C7
:1057B0008631910509F4BEC220F58231910511F4BC
:1057C0000C94EE3388F4419711F00C94654984E70A
:1057D0009CE60E9489FB0F94B26A179816980E9463
:1057E000D94D14980C947C498431910509F46BC20D
:1057F000459711F00C94654981E00F94CF050C9406
:105800007C498831910509F4BAC208F4A1C28931F2
:10581000910511F40C9477434A9709F4E2C20C9471
:1058200065498032910509F45EC408F053C08D319A
:10583000910511F40C947C4908F485C38E319105CF
:1058400009F4ABC34F9711F00C9465490E9485F998
:105850006093A3067093A4068093A5069093A60672
:1058600000919F061091A0062091A1063091A206FA
:10587000601B710B820B930B28EE33E040E050E08D
:105880000F94B0A7CA01B9012CE330E040E050E02A
:105890000F94B0A77F936F933F932F9385E690E18A
:1058A0009F938F938E010F5F1F4F1F930F930F9442
:1058B00029A382ED9BE30F940E2CC8010E94C0F532
:1058C000C8010F943D6C0FB6F894DEBF0FBECDBF7C
:1058D0000C947C498D32910509F4EAC4F8F48A32BB
:1058E000910509F4A9C48C9711F00C9465498FEFC8
:1058F0000E94D4F381EA9DE00F9445A73BE0839F8B
:10590000C001112460E070E0805B924F0F9487A784
:105910000E94A9650E948A650C947C498E3291058B
:1059200009F4CDC48F9711F00C94654984E08093FD
:105930004E020E9444710E94B5F3F0C48D36910569
:1059400009F434C6F0F58635910509F49AC7D8F400
:105950008335910509F43BC760F48235910511F058
:105960000C94654980919406877F809394060C94EB
:105970007C498435910509F431C78535910509F4D1
:1059800065C70C9465498936910509F4D5C550F46D
:105990008C35910509F494C78836910509F497C5AB
:1059A0000C9465498A36910509F4FBC68B3691053E
:1059B00011F00C9465491092F8061092F7060C94B9
:1059C0007C498337910511F40C941C35D0F4803751
:1059D000910509F49BC538F48E36910511F40C94A9
:1059E000E8340C9465498137910511F40C94FB342B
:1059F0008237910511F00C9465490F945C6F0C94FB
:105A00007C498C38910509F486C570F48737910577
:105A100011F40C9401368B37910511F00C94654903
:105A20000F94276F0C947C498B39910509F49CC520
:105A30008E3B910509F42FC60C9465498339B1E07A
:105A40009B0711F40C949B3B08F091C08D3D910590
:105A500011F40C94A83908F046C08E3C910511F45D
:105A60000C94323810F58B3C910511F40C940637E8
:105A700080F4893C910511F00C94654970EFC72EB4
:105A800072E0D72EE7E9EE2EE6E1FE2E10E00C9450
:105A9000F0368C3C910511F40C945E378D3C9105E9
:105AA00011F40C94B9370C946549813D910511F4BA
:105AB0000C94AE3860F48F3C910511F40C944F387F
:105AC000803D910511F40C9486380C946549863D0F
:105AD000910511F40C94DD388C3D910511F40C9472
